{
  "_format": "hh-sol-artifact-1",
  "contractName": "RestaurantReview",
  "sourceName": "contracts/RestaurantReview.sol",
  "abi": [
    {
      "inputs": [
        {
          "internalType": "uint256",
          "name": "_minRating",
          "type": "uint256"
        },
        {
          "internalType": "uint256",
          "name": "_maxRating",
          "type": "uint256"
        }
      ],
      "stateMutability": "nonpayable",
      "type": "constructor"
    },
    {
      "inputs": [],
      "name": "InvalidIndex",
      "type": "error"
    },
    {
      "inputs": [],
      "name": "InvalidRating",
      "type": "error"
    },
    {
      "inputs": [],
      "name": "MissingCityName",
      "type": "error"
    },
    {
      "inputs": [],
      "name": "MissingCountryName",
      "type": "error"
    },
    {
      "inputs": [],
      "name": "MissingRestaurantAddress",
      "type": "error"
    },
    {
      "inputs": [],
      "name": "MissingRestaurantName",
      "type": "error"
    },
    {
      "anonymous": false,
      "inputs": [
        {
          "indexed": true,
          "internalType": "uint256",
          "name": "_id",
          "type": "uint256"
        },
        {
          "indexed": false,
          "internalType": "string",
          "name": "_countryName",
          "type": "string"
        },
        {
          "indexed": false,
          "internalType": "string",
          "name": "_cityName",
          "type": "string"
        }
      ],
      "name": "CityCreated",
      "type": "event"
    },
    {
      "anonymous": false,
      "inputs": [
        {
          "indexed": true,
          "internalType": "uint256",
          "name": "_id",
          "type": "uint256"
        },
        {
          "indexed": false,
          "internalType": "uint256",
          "name": "_cityId",
          "type": "uint256"
        },
        {
          "indexed": false,
          "internalType": "string",
          "name": "_restaurantAddress",
          "type": "string"
        },
        {
          "indexed": false,
          "internalType": "string",
          "name": "_restaurantName",
          "type": "string"
        }
      ],
      "name": "RestaurantCreated",
      "type": "event"
    },
    {
      "anonymous": false,
      "inputs": [
        {
          "indexed": true,
          "internalType": "uint256",
          "name": "_id",
          "type": "uint256"
        },
        {
          "indexed": true,
          "internalType": "address",
          "name": "_reviewer",
          "type": "address"
        },
        {
          "indexed": false,
          "internalType": "uint256",
          "name": "_restuarantId",
          "type": "uint256"
        },
        {
          "indexed": false,
          "internalType": "uint256",
          "name": "_rating",
          "type": "uint256"
        },
        {
          "indexed": false,
          "internalType": "string",
          "name": "_metadata",
          "type": "string"
        }
      ],
      "name": "ReviewCreated",
      "type": "event"
    },
    {
      "inputs": [
        {
          "internalType": "string",
          "name": "_countryName",
          "type": "string"
        },
        {
          "internalType": "string",
          "name": "_cityName",
          "type": "string"
        }
      ],
      "name": "createCity",
      "outputs": [
        {
          "internalType": "uint256",
          "name": "",
          "type": "uint256"
        }
      ],
      "stateMutability": "nonpayable",
      "type": "function"
    },
    {
      "inputs": [
        {
          "internalType": "string",
          "name": "_countryName",
          "type": "string"
        },
        {
          "internalType": "string",
          "name": "_cityName",
          "type": "string"
        },
        {
          "internalType": "string",
          "name": "_restaurantAddress",
          "type": "string"
        },
        {
          "internalType": "string",
          "name": "_restaurantName",
          "type": "string"
        },
        {
          "internalType": "uint256",
          "name": "_rating",
          "type": "uint256"
        },
        {
          "internalType": "string",
          "name": "_metadata",
          "type": "string"
        }
      ],
      "name": "createCityRestaurantAndReview",
      "outputs": [
        {
          "internalType": "uint256",
          "name": "",
          "type": "uint256"
        },
        {
          "internalType": "uint256",
          "name": "",
          "type": "uint256"
        },
        {
          "internalType": "uint256",
          "name": "",
          "type": "uint256"
        }
      ],
      "stateMutability": "nonpayable",
      "type": "function"
    },
    {
      "inputs": [
        {
          "internalType": "uint256",
          "name": "_cityId",
          "type": "uint256"
        },
        {
          "internalType": "string",
          "name": "_restaurantAddress",
          "type": "string"
        },
        {
          "internalType": "string",
          "name": "_restaurantName",
          "type": "string"
        }
      ],
      "name": "createRestaurant",
      "outputs": [
        {
          "internalType": "uint256",
          "name": "",
          "type": "uint256"
        }
      ],
      "stateMutability": "nonpayable",
      "type": "function"
    },
    {
      "inputs": [
        {
          "internalType": "uint256",
          "name": "_cityId",
          "type": "uint256"
        },
        {
          "internalType": "string",
          "name": "_restaurantAddress",
          "type": "string"
        },
        {
          "internalType": "string",
          "name": "_restaurantName",
          "type": "string"
        },
        {
          "internalType": "uint256",
          "name": "_rating",
          "type": "uint256"
        },
        {
          "internalType": "string",
          "name": "_metadata",
          "type": "string"
        }
      ],
      "name": "createRestaurantAndReview",
      "outputs": [
        {
          "internalType": "uint256",
          "name": "",
          "type": "uint256"
        },
        {
          "internalType": "uint256",
          "name": "",
          "type": "uint256"
        }
      ],
      "stateMutability": "nonpayable",
      "type": "function"
    },
    {
      "inputs": [
        {
          "internalType": "uint256",
          "name": "_restaurantId",
          "type": "uint256"
        },
        {
          "internalType": "uint256",
          "name": "_rating",
          "type": "uint256"
        },
        {
          "internalType": "string",
          "name": "_metadata",
          "type": "string"
        }
      ],
      "name": "createReview",
      "outputs": [
        {
          "internalType": "uint256",
          "name": "",
          "type": "uint256"
        }
      ],
      "stateMutability": "nonpayable",
      "type": "function"
    },
    {
      "inputs": [
        {
          "internalType": "uint256",
          "name": "_id",
          "type": "uint256"
        }
      ],
      "name": "getCityById",
      "outputs": [
        {
          "components": [
            {
              "internalType": "string",
              "name": "countryName",
              "type": "string"
            },
            {
              "internalType": "string",
              "name": "cityName",
              "type": "string"
            }
          ],
          "internalType": "struct City",
          "name": "",
          "type": "tuple"
        }
      ],
      "stateMutability": "view",
      "type": "function"
    },
    {
      "inputs": [],
      "name": "getNumberOfCities",
      "outputs": [
        {
          "internalType": "uint256",
          "name": "",
          "type": "uint256"
        }
      ],
      "stateMutability": "view",
      "type": "function"
    },
    {
      "inputs": [],
      "name": "getNumberOfRestaurants",
      "outputs": [
        {
          "internalType": "uint256",
          "name": "",
          "type": "uint256"
        }
      ],
      "stateMutability": "view",
      "type": "function"
    },
    {
      "inputs": [],
      "name": "getNumberOfReviews",
      "outputs": [
        {
          "internalType": "uint256",
          "name": "",
          "type": "uint256"
        }
      ],
      "stateMutability": "view",
      "type": "function"
    },
    {
      "inputs": [
        {
          "internalType": "uint256",
          "name": "_id",
          "type": "uint256"
        }
      ],
      "name": "getRestaurantById",
      "outputs": [
        {
          "components": [
            {
              "internalType": "uint256",
              "name": "cityId",
              "type": "uint256"
            },
            {
              "internalType": "string",
              "name": "restaurantAddress",
              "type": "string"
            },
            {
              "internalType": "string",
              "name": "restaurantName",
              "type": "string"
            }
          ],
          "internalType": "struct Restaurant",
          "name": "",
          "type": "tuple"
        }
      ],
      "stateMutability": "view",
      "type": "function"
    },
    {
      "inputs": [
        {
          "internalType": "uint256",
          "name": "_id",
          "type": "uint256"
        }
      ],
      "name": "getReviewById",
      "outputs": [
        {
          "components": [
            {
              "internalType": "address",
              "name": "reviewer",
              "type": "address"
            },
            {
              "internalType": "uint256",
              "name": "restaurantId",
              "type": "uint256"
            },
            {
              "internalType": "uint256",
              "name": "rating",
              "type": "uint256"
            },
            {
              "internalType": "string",
              "name": "metadata",
              "type": "string"
            }
          ],
          "internalType": "struct Review",
          "name": "",
          "type": "tuple"
        }
      ],
      "stateMutability": "view",
      "type": "function"
    },
    {
      "inputs": [],
      "name": "maxRating",
      "outputs": [
        {
          "internalType": "uint256",
          "name": "",
          "type": "uint256"
        }
      ],
      "stateMutability": "view",
      "type": "function"
    },
    {
      "inputs": [],
      "name": "minRating",
      "outputs": [
        {
          "internalType": "uint256",
          "name": "",
          "type": "uint256"
        }
      ],
      "stateMutability": "view",
      "type": "function"
    }
  ],
  "bytecode": "0x60806040523480156200001157600080fd5b5060405162001ae638038062001ae683398181016040528101906200003791906200008d565b81600381905550806004819055505050620000d4565b600080fd5b6000819050919050565b620000678162000052565b81146200007357600080fd5b50565b60008151905062000087816200005c565b92915050565b60008060408385031215620000a757620000a66200004d565b5b6000620000b78582860162000076565b9250506020620000ca8582860162000076565b9150509250929050565b611a0280620000e46000396000f3fe608060405234801561001057600080fd5b50600436106100cf5760003560e01c80635dd302c11161008c578063b68959dd11610066578063b68959dd1461023f578063be7516ff1461026f578063de1f35281461029f578063e81c598f146102cf576100cf565b80635dd302c1146101c05780636d4166e9146101f05780638f7fd8b71461020e576100cf565b806303cf51dd146100d45780630483670e146100f257806316d81b381461012257806350ca36b81461015257806353c34b7c1461018457806354a25ceb146101a2575b600080fd5b6100dc6102ed565b6040516100e99190610d9d565b60405180910390f35b61010c60048036038101906101079190610f12565b6102f3565b6040516101199190610d9d565b60405180910390f35b61013c60048036038101906101379190610fb6565b61043d565b6040516101499190610d9d565b60405180910390f35b61016c60048036038101906101679190611025565b610619565b60405161017b9392919061113e565b60405180910390f35b61018c610657565b6040516101999190610d9d565b60405180910390f35b6101aa610663565b6040516101b79190610d9d565b60405180910390f35b6101da60048036038101906101d59190611175565b610669565b6040516101e791906112d4565b60405180910390f35b6101f86107df565b6040516102059190610d9d565b60405180910390f35b610228600480360381019061022391906112f6565b6107ec565b6040516102369291906113c5565b60405180910390f35b61025960048036038101906102549190611175565b61081f565b6040516102669190611432565b60405180910390f35b61028960048036038101906102849190611175565b6109bd565b60405161029691906114ab565b60405180910390f35b6102b960048036038101906102b491906114cd565b610b65565b6040516102c69190610d9d565b60405180910390f35b6102d7610cfe565b6040516102e49190610d9d565b60405180910390f35b60035481565b60008083510361032f576040517f6498fbc300000000000000000000000000000000000000000000000000000000815260040160405180910390fd5b600082510361036a576040517fbf42e9d400000000000000000000000000000000000000000000000000000000815260040160405180910390fd5b6000604051806040016040528085815260200184815250908060018154018082558091505060019003906000526020600020906002020160009091909190915060008201518160000190816103bf9190611764565b5060208201518160010190816103d59190611764565b50505060016000805490506103ea9190611865565b7f880983cd1d067927a61b10580d30b5b0585e41bcac839506daecd6289dd5da46848460405161041b9291906118e3565b60405180910390a260016000805490506104359190611865565b905092915050565b6000600180549050841061047d576040517f63df817100000000000000000000000000000000000000000000000000000000815260040160405180910390fd5b60035483108061048e575060045483115b156104c5576040517fd29df2dd00000000000000000000000000000000000000000000000000000000815260040160405180910390fd5b600260405180608001604052803373ffffffffffffffffffffffffffffffffffffffff16815260200186815260200185815260200184815250908060018154018082558091505060019003906000526020600020906004020160009091909190915060008201518160000160006101000a81548173ffffffffffffffffffffffffffffffffffffffff021916908373ffffffffffffffffffffffffffffffffffffffff160217905550602082015181600101556040820151816002015560608201518160030190816105979190611764565b5050503373ffffffffffffffffffffffffffffffffffffffff1660016002805490506105c39190611865565b7fd2722ed8a2d464f4a3d80ed524be46f9040b345c04114cae817d0a6774e741d18686866040516105f69392919061191a565b60405180910390a360016002805490506106109190611865565b90509392505050565b6000806000806106298a8a6102f3565b905060008061063b838b8b8b8b6107ec565b9150915082828295509550955050505096509650969350505050565b60008080549050905090565b60045481565b610671610d0b565b60028054905082106106af576040517f63df817100000000000000000000000000000000000000000000000000000000815260040160405180910390fd5b600282815481106106c3576106c2611958565b5b90600052602060002090600402016040518060800160405290816000820160009054906101000a900473ffffffffffffffffffffffffffffffffffffffff1673ffffffffffffffffffffffffffffffffffffffff1673ffffffffffffffffffffffffffffffffffffffff168152602001600182015481526020016002820154815260200160038201805461075690611587565b80601f016020809104026020016040519081016040528092919081815260200182805461078290611587565b80156107cf5780601f106107a4576101008083540402835291602001916107cf565b820191906000526020600020905b8154815290600101906020018083116107b257829003601f168201915b5050505050815250509050919050565b6000600180549050905090565b60008060006107fc888888610b65565b9050600061080b82878761043d565b905081819350935050509550959350505050565b610827610d49565b6000805490508210610865576040517f63df817100000000000000000000000000000000000000000000000000000000815260040160405180910390fd5b6000828154811061087957610878611958565b5b90600052602060002090600202016040518060400160405290816000820180546108a290611587565b80601f01602080910402602001604051908101604052809291908181526020018280546108ce90611587565b801561091b5780601f106108f05761010080835404028352916020019161091b565b820191906000526020600020905b8154815290600101906020018083116108fe57829003601f168201915b5050505050815260200160018201805461093490611587565b80601f016020809104026020016040519081016040528092919081815260200182805461096090611587565b80156109ad5780601f10610982576101008083540402835291602001916109ad565b820191906000526020600020905b81548152906001019060200180831161099057829003601f168201915b5050505050815250509050919050565b6109c5610d63565b6001805490508210610a03576040517f63df817100000000000000000000000000000000000000000000000000000000815260040160405180910390fd5b60018281548110610a1757610a16611958565b5b906000526020600020906003020160405180606001604052908160008201548152602001600182018054610a4a90611587565b80601f0160208091040260200160405190810160405280929190818152602001828054610a7690611587565b8015610ac35780601f10610a9857610100808354040283529160200191610ac3565b820191906000526020600020905b815481529060010190602001808311610aa657829003601f168201915b50505050508152602001600282018054610adc90611587565b80601f0160208091040260200160405190810160405280929190818152602001828054610b0890611587565b8015610b555780601f10610b2a57610100808354040283529160200191610b55565b820191906000526020600020905b815481529060010190602001808311610b3857829003601f168201915b5050505050815250509050919050565b600080805490508410610ba4576040517f63df817100000000000000000000000000000000000000000000000000000000815260040160405180910390fd5b6000835103610bdf576040517f4a09dc6e00000000000000000000000000000000000000000000000000000000815260040160405180910390fd5b6000825103610c1a576040517f0a46b99800000000000000000000000000000000000000000000000000000000815260040160405180910390fd5b60016040518060600160405280868152602001858152602001848152509080600181540180825580915050600190039060005260206000209060030201600090919091909150600082015181600001556020820151816001019081610c7f9190611764565b506040820151816002019081610c959190611764565b50505060018080549050610ca99190611865565b7fce1731050af4fcdb046a399ae94786082992854d801fd604df303ee071118699858585604051610cdc93929190611987565b60405180910390a260018080549050610cf59190611865565b90509392505050565b6000600280549050905090565b6040518060800160405280600073ffffffffffffffffffffffffffffffffffffffff1681526020016000815260200160008152602001606081525090565b604051806040016040528060608152602001606081525090565b60405180606001604052806000815260200160608152602001606081525090565b6000819050919050565b610d9781610d84565b82525050565b6000602082019050610db26000830184610d8e565b92915050565b6000604051905090565b600080fd5b600080fd5b600080fd5b600080fd5b6000601f19601f8301169050919050565b7f4e487b7100000000000000000000000000000000000000000000000000000000600052604160045260246000fd5b610e1f82610dd6565b810181811067ffffffffffffffff82111715610e3e57610e3d610de7565b5b80604052505050565b6000610e51610db8565b9050610e5d8282610e16565b919050565b600067ffffffffffffffff821115610e7d57610e7c610de7565b5b610e8682610dd6565b9050602081019050919050565b82818337600083830152505050565b6000610eb5610eb084610e62565b610e47565b905082815260208101848484011115610ed157610ed0610dd1565b5b610edc848285610e93565b509392505050565b600082601f830112610ef957610ef8610dcc565b5b8135610f09848260208601610ea2565b91505092915050565b60008060408385031215610f2957610f28610dc2565b5b600083013567ffffffffffffffff811115610f4757610f46610dc7565b5b610f5385828601610ee4565b925050602083013567ffffffffffffffff811115610f7457610f73610dc7565b5b610f8085828601610ee4565b9150509250929050565b610f9381610d84565b8114610f9e57600080fd5b50565b600081359050610fb081610f8a565b92915050565b600080600060608486031215610fcf57610fce610dc2565b5b6000610fdd86828701610fa1565b9350506020610fee86828701610fa1565b925050604084013567ffffffffffffffff81111561100f5761100e610dc7565b5b61101b86828701610ee4565b9150509250925092565b60008060008060008060c0878903121561104257611041610dc2565b5b600087013567ffffffffffffffff8111156110605761105f610dc7565b5b61106c89828a01610ee4565b965050602087013567ffffffffffffffff81111561108d5761108c610dc7565b5b61109989828a01610ee4565b955050604087013567ffffffffffffffff8111156110ba576110b9610dc7565b5b6110c689828a01610ee4565b945050606087013567ffffffffffffffff8111156110e7576110e6610dc7565b5b6110f389828a01610ee4565b935050608061110489828a01610fa1565b92505060a087013567ffffffffffffffff81111561112557611124610dc7565b5b61113189828a01610ee4565b9150509295509295509295565b60006060820190506111536000830186610d8e565b6111606020830185610d8e565b61116d6040830184610d8e565b949350505050565b60006020828403121561118b5761118a610dc2565b5b600061119984828501610fa1565b91505092915050565b600073ffffffffffffffffffffffffffffffffffffffff82169050919050565b60006111cd826111a2565b9050919050565b6111dd816111c2565b82525050565b6111ec81610d84565b82525050565b600081519050919050565b600082825260208201905092915050565b60005b8381101561122c578082015181840152602081019050611211565b60008484015250505050565b6000611243826111f2565b61124d81856111fd565b935061125d81856020860161120e565b61126681610dd6565b840191505092915050565b600060808301600083015161128960008601826111d4565b50602083015161129c60208601826111e3565b5060408301516112af60408601826111e3565b50606083015184820360608601526112c78282611238565b9150508091505092915050565b600060208201905081810360008301526112ee8184611271565b905092915050565b600080600080600060a0868803121561131257611311610dc2565b5b600061132088828901610fa1565b955050602086013567ffffffffffffffff81111561134157611340610dc7565b5b61134d88828901610ee4565b945050604086013567ffffffffffffffff81111561136e5761136d610dc7565b5b61137a88828901610ee4565b935050606061138b88828901610fa1565b925050608086013567ffffffffffffffff8111156113ac576113ab610dc7565b5b6113b888828901610ee4565b9150509295509295909350565b60006040820190506113da6000830185610d8e565b6113e76020830184610d8e565b9392505050565b6000604083016000830151848203600086015261140b8282611238565b915050602083015184820360208601526114258282611238565b9150508091505092915050565b6000602082019050818103600083015261144c81846113ee565b905092915050565b600060608301600083015161146c60008601826111e3565b50602083015184820360208601526114848282611238565b9150506040830151848203604086015261149e8282611238565b9150508091505092915050565b600060208201905081810360008301526114c58184611454565b905092915050565b6000806000606084860312156114e6576114e5610dc2565b5b60006114f486828701610fa1565b935050602084013567ffffffffffffffff81111561151557611514610dc7565b5b61152186828701610ee4565b925050604084013567ffffffffffffffff81111561154257611541610dc7565b5b61154e86828701610ee4565b9150509250925092565b7f4e487b7100000000000000000000000000000000000000000000000000000000600052602260045260246000fd5b6000600282049050600182168061159f57607f821691505b6020821081036115b2576115b1611558565b5b50919050565b60008190508160005260206000209050919050565b60006020601f8301049050919050565b600082821b905092915050565b60006008830261161a7fffffffffffffffffffffffffffffffffffffffffffffffffffffffffffffffff826115dd565b61162486836115dd565b95508019841693508086168417925050509392505050565b6000819050919050565b600061166161165c61165784610d84565b61163c565b610d84565b9050919050565b6000819050919050565b61167b83611646565b61168f61168782611668565b8484546115ea565b825550505050565b600090565b6116a4611697565b6116af818484611672565b505050565b5b818110156116d3576116c860008261169c565b6001810190506116b5565b5050565b601f821115611718576116e9816115b8565b6116f2846115cd565b81016020851015611701578190505b61171561170d856115cd565b8301826116b4565b50505b505050565b600082821c905092915050565b600061173b6000198460080261171d565b1980831691505092915050565b6000611754838361172a565b9150826002028217905092915050565b61176d826111f2565b67ffffffffffffffff81111561178657611785610de7565b5b6117908254611587565b61179b8282856116d7565b600060209050601f8311600181146117ce57600084156117bc578287015190505b6117c68582611748565b86555061182e565b601f1984166117dc866115b8565b60005b82811015611804578489015182556001820191506020850194506020810190506117df565b86831015611821578489015161181d601f89168261172a565b8355505b6001600288020188555050505b505050505050565b7f4e487b7100000000000000000000000000000000000000000000000000000000600052601160045260246000fd5b600061187082610d84565b915061187b83610d84565b925082820390508181111561189357611892611836565b5b92915050565b600082825260208201905092915050565b60006118b5826111f2565b6118bf8185611899565b93506118cf81856020860161120e565b6118d881610dd6565b840191505092915050565b600060408201905081810360008301526118fd81856118aa565b9050818103602083015261191181846118aa565b90509392505050565b600060608201905061192f6000830186610d8e565b61193c6020830185610d8e565b818103604083015261194e81846118aa565b9050949350505050565b7f4e487b7100000000000000000000000000000000000000000000000000000000600052603260045260246000fd5b600060608201905061199c6000830186610d8e565b81810360208301526119ae81856118aa565b905081810360408301526119c281846118aa565b905094935050505056fea2646970667358221220f141402549c27b8bc53e9dfb2aad2dc9c4d377f47cd53504c184426a78a1ab9964736f6c63430008110033",
  "linkReferences": {},
  "deployedLinkReferences": {}
}